{
  "_format": "hh-sol-artifact-1",
  "contractName": "UniswapV2Swap",
  "sourceName": "contracts/uniswapv2testSwap.sol",
  "abi": [
    {
      "inputs": [
        {
          "internalType": "address",
          "name": "_tokenIn",
          "type": "address"
        },
        {
          "internalType": "address",
          "name": "_tokenOut",
          "type": "address"
        }
      ],
      "name": "getAmountOutMin",
      "outputs": [
        {
          "internalType": "uint256",
          "name": "",
          "type": "uint256"
        }
      ],
      "stateMutability": "view",
      "type": "function"
    },
    {
      "inputs": [
        {
          "internalType": "address",
          "name": "_tokenIn",
          "type": "address"
        },
        {
          "internalType": "address",
          "name": "_tokenOut",
          "type": "address"
        },
        {
          "internalType": "uint256",
          "name": "_amountIn",
          "type": "uint256"
        },
        {
          "internalType": "uint256",
          "name": "_amountOutMin",
          "type": "uint256"
        },
        {
          "internalType": "address",
          "name": "_to",
          "type": "address"
        }
      ],
      "name": "swapV2",
      "outputs": [],
      "stateMutability": "nonpayable",
      "type": "function"
    }
  ],
  "bytecode": "0x608060405234801561001057600080fd5b5061072a806100206000396000f3fe608060405234801561001057600080fd5b50600436106100365760003560e01c806332a6c9241461003b578063dd5a760f14610060575b600080fd5b61004e610049366004610491565b610075565b60405190815260200160405180910390f35b61007361006e3660046104c4565b6102e0565b005b600060606001600160a01b03841673c02aaa39b223fe8d0a0e5c4f27ead9083c756cc214806100c057506001600160a01b03831673c02aaa39b223fe8d0a0e5c4f27ead9083c756cc2145b1561015257604080516002808252606082018352909160208301908036833701905050905083816000815181106100f9576100f9610531565b60200260200101906001600160a01b031690816001600160a01b031681525050828160018151811061012d5761012d610531565b60200260200101906001600160a01b031690816001600160a01b031681525050610224565b604080516003808252608082019092529060208201606080368337019050509050838160008151811061018757610187610531565b60200260200101906001600160a01b031690816001600160a01b03168152505073c02aaa39b223fe8d0a0e5c4f27ead9083c756cc2816001815181106101cf576101cf610531565b60200260200101906001600160a01b031690816001600160a01b031681525050828160028151811061020357610203610531565b60200260200101906001600160a01b031690816001600160a01b0316815250505b60405163d06ca61f60e01b8152600090737a250d5630b4cf539739df2c5dacb4c659f2488d9063d06ca61f9061026890670de0b6b3a764000090869060040161058b565b600060405180830381865afa158015610285573d6000803e3d6000fd5b505050506040513d6000823e601f3d908101601f191682016040526102ad91908101906105ac565b905080600183516102be919061066a565b815181106102ce576102ce610531565b60200260200101519250505092915050565b60405163095ea7b360e01b8152737a250d5630b4cf539739df2c5dacb4c659f2488d6004820152602481018490526001600160a01b0386169063095ea7b3906044016020604051808303816000875af1158015610341573d6000803e3d6000fd5b505050506040513d601f19601f82011682018060405250810190610365919061068f565b506040805160028082526060808301845292602083019080368337019050509050858160008151811061039a5761039a610531565b60200260200101906001600160a01b031690816001600160a01b03168152505084816001815181106103ce576103ce610531565b6001600160a01b03909216602092830291909101909101526040516338ed173960e01b8152737a250d5630b4cf539739df2c5dacb4c659f2488d906338ed17399061042590879087908690889042906004016106b8565b6000604051808303816000875af1158015610444573d6000803e3d6000fd5b505050506040513d6000823e601f3d908101601f1916820160405261046c91908101906105ac565b50505050505050565b80356001600160a01b038116811461048c57600080fd5b919050565b600080604083850312156104a457600080fd5b6104ad83610475565b91506104bb60208401610475565b90509250929050565b600080600080600060a086880312156104dc57600080fd5b6104e586610475565b94506104f360208701610475565b9350604086013592506060860135915061050f60808701610475565b90509295509295909350565b634e487b7160e01b600052604160045260246000fd5b634e487b7160e01b600052603260045260246000fd5b600081518084526020808501945080840160005b838110156105805781516001600160a01b03168752958201959082019060010161055b565b509495945050505050565b8281526040602082015260006105a46040830184610547565b949350505050565b600060208083850312156105bf57600080fd5b825167ffffffffffffffff808211156105d757600080fd5b818501915085601f8301126105eb57600080fd5b8151818111156105fd576105fd61051b565b8060051b604051601f19603f830116810181811085821117156106225761062261051b565b60405291825284820192508381018501918883111561064057600080fd5b938501935b8285101561065e57845184529385019392850192610645565b98975050505050505050565b60008282101561068a57634e487b7160e01b600052601160045260246000fd5b500390565b6000602082840312156106a157600080fd5b815180151581146106b157600080fd5b9392505050565b85815284602082015260a0604082015260006106d760a0830186610547565b6001600160a01b039490941660608301525060800152939250505056fea26469706673582212201bedcb9fec4ccc465c7476996e59613d73c07f7379392fd335e0aecab3211b7264736f6c634300080f0033",
  "linkReferences": {},
  "deployedLinkReferences": {}
}