{
  "_format": "hh-sol-artifact-1",
  "contractName": "Swapper",
  "sourceName": "contracts/uniswapV3swap.sol",
  "abi": [
    {
      "inputs": [],
      "name": "T",
      "type": "error"
    },
    {
      "inputs": [],
      "name": "_factory",
      "outputs": [
        {
          "internalType": "address",
          "name": "",
          "type": "address"
        }
      ],
      "stateMutability": "view",
      "type": "function"
    },
    {
      "inputs": [
        {
          "internalType": "address",
          "name": "tokenIn",
          "type": "address"
        },
        {
          "internalType": "uint128",
          "name": "amountIn",
          "type": "uint128"
        },
        {
          "internalType": "uint32",
          "name": "secondsAgo",
          "type": "uint32"
        },
        {
          "internalType": "address",
          "name": "tokenOut",
          "type": "address"
        }
      ],
      "name": "estimateAmountOut",
      "outputs": [
        {
          "internalType": "uint256",
          "name": "amountOut",
          "type": "uint256"
        }
      ],
      "stateMutability": "view",
      "type": "function"
    },
    {
      "inputs": [
        {
          "internalType": "address",
          "name": "token0",
          "type": "address"
        },
        {
          "internalType": "address",
          "name": "token1",
          "type": "address"
        }
      ],
      "name": "getPrice",
      "outputs": [
        {
          "internalType": "int256",
          "name": "",
          "type": "int256"
        }
      ],
      "stateMutability": "view",
      "type": "function"
    },
    {
      "inputs": [],
      "name": "swapRouter",
      "outputs": [
        {
          "internalType": "contract ISwapRouter",
          "name": "",
          "type": "address"
        }
      ],
      "stateMutability": "view",
      "type": "function"
    }
  ],
  "bytecode": "0x60a0604052731f98431c8ad98523631ae4a59f267346ea31f98460805234801561002857600080fd5b50608051610d4461004a6000396000818160c201526103610152610d446000f3fe608060405234801561001057600080fd5b506004361061004c5760003560e01c80636f5b825d14610051578063ac41865a14610077578063c31c9c071461008a578063c5cc6b6a146100bd575b600080fd5b61006461005f36600461091e565b6100e4565b6040519081526020015b60405180910390f35b61006461008536600461098f565b610292565b6100a573e592427a0aece92de3edee1f18e0157c0586156481565b6040516001600160a01b03909116815260200161006e565b6100a57f000000000000000000000000000000000000000000000000000000000000000081565b6000806100f48684610bb861032a565b6040805160028082526060820183529293506000929091602083019080368337019050509050848160008151811061012e5761012e6109de565b602002602001019063ffffffff16908163ffffffff168152505060008160018151811061015d5761015d6109de565b63ffffffff9092166020928302919091019091015260405163883bdbfd60e01b81526000906001600160a01b0384169063883bdbfd906101a19085906004016109f4565b600060405180830381865afa1580156101be573d6000803e3d6000fd5b505050506040513d6000823e601f3d908101601f191682016040526101e69190810190610b07565b5090506000816000815181106101fe576101fe6109de565b602002602001015182600181518110610219576102196109de565b602002602001015161022b9190610be9565b9050600061023f63ffffffff891683610c4f565b905060008260060b128015610265575061025f63ffffffff891683610c8d565b60060b15155b15610278578061027481610caf565b9150505b610284818a8c8a610423565b9a9950505050505050505050565b6000806102a28484610bb861032a565b90506001600160a01b0381166103095760405162461bcd60e51b815260206004820152602160248201527f506f6f6c20646f6573206e6f74206578697374206f6e20556e697377617020566044820152603360f81b60648201526084015b60405180910390fd5b600061032185670de0b6b3a76400006101f4876100e4565b95945050505050565b604051630b4c774160e11b81526001600160a01b038481166004830152838116602483015262ffffff8316604483015260009182917f00000000000000000000000000000000000000000000000000000000000000001690631698ee8290606401602060405180830381865afa1580156103a8573d6000803e3d6000fd5b505050506040513d601f19601f820116820180604052508101906103cc9190610cd2565b90506001600160a01b0381166104195760405162461bcd60e51b81526020600482015260126024820152711c1bdbdb08191bd95cdb89dd08195e1a5cdd60721b6044820152606401610300565b90505b9392505050565b60008061042f86610531565b90506001600160801b036001600160a01b038216116104b557600061045d6001600160a01b03831680610cef565b9050836001600160a01b0316856001600160a01b03161061049557610490600160c01b876001600160801b031683610854565b6104ad565b6104ad81876001600160801b0316600160c01b610854565b925050610528565b60006104d46001600160a01b0383168068010000000000000000610854565b9050836001600160a01b0316856001600160a01b03161061050c57610507600160801b876001600160801b031683610854565b610524565b61052481876001600160801b0316600160801b610854565b9250505b50949350505050565b60008060008360020b12610548578260020b610550565b8260020b6000035b9050620d89e8811115610576576040516315e4079d60e11b815260040160405180910390fd5b60008160011660000361058d57600160801b61059f565b6ffffcb933bd6fad37aa2d162d1a5940015b70ffffffffffffffffffffffffffffffffff16905060028216156105d3576ffff97272373d413259a46990580e213a0260801c5b60048216156105f2576ffff2e50f5f656932ef12357cf3c7fdcc0260801c5b6008821615610611576fffe5caca7e10e4e61c3624eaa0941cd00260801c5b6010821615610630576fffcb9843d60f6159c9db58835c9266440260801c5b602082161561064f576fff973b41fa98c081472e6896dfb254c00260801c5b604082161561066e576fff2ea16466c96a3843ec78b326b528610260801c5b608082161561068d576ffe5dee046a99a2a811c461f1969c30530260801c5b6101008216156106ad576ffcbe86c7900a88aedcffc83b479aa3a40260801c5b6102008216156106cd576ff987a7253ac413176f2b074cf7815e540260801c5b6104008216156106ed576ff3392b0822b70005940c7a398e4b70f30260801c5b61080082161561070d576fe7159475a2c29b7443b29c7fa6e889d90260801c5b61100082161561072d576fd097f3bdfd2022b8845ad8f792aa58250260801c5b61200082161561074d576fa9f746462d870fdf8a65dc1f90e061e50260801c5b61400082161561076d576f70d869a156d2a1b890bb3df62baf32f70260801c5b61800082161561078d576f31be135f97d08fd981231505542fcfa60260801c5b620100008216156107ae576f09aa508b5b7a84e1c677de54f3e99bc90260801c5b620200008216156107ce576e5d6af8dedb81196699c329225ee6040260801c5b620400008216156107ed576d2216e584f5fa1ea926041bedfe980260801c5b6208000082161561080a576b048a170391f7dc42444e8fa20260801c5b60008460020b131561082b57806000198161082757610827610c39565b0490505b64010000000081061561083f576001610842565b60005b60ff16602082901c0192505050919050565b600080806000198587098587029250828110838203039150508060000361088d576000841161088257600080fd5b50829004905061041c565b80841161089957600080fd5b6000848688096000868103871696879004966002600389028118808a02820302808a02820302808a02820302808a02820302808a02820302808a02909103029181900381900460010186841190950394909402919094039290920491909117919091029150509392505050565b6001600160a01b038116811461091b57600080fd5b50565b6000806000806080858703121561093457600080fd5b843561093f81610906565b935060208501356001600160801b038116811461095b57600080fd5b9250604085013563ffffffff8116811461097457600080fd5b9150606085013561098481610906565b939692955090935050565b600080604083850312156109a257600080fd5b82356109ad81610906565b915060208301356109bd81610906565b809150509250929050565b634e487b7160e01b600052604160045260246000fd5b634e487b7160e01b600052603260045260246000fd5b6020808252825182820181905260009190848201906040850190845b81811015610a3257835163ffffffff1683529284019291840191600101610a10565b50909695505050505050565b604051601f8201601f1916810167ffffffffffffffff81118282101715610a6757610a676109c8565b604052919050565b600067ffffffffffffffff821115610a8957610a896109c8565b5060051b60200190565b600082601f830112610aa457600080fd5b81516020610ab9610ab483610a6f565b610a3e565b82815260059290921b84018101918181019086841115610ad857600080fd5b8286015b84811015610afc578051610aef81610906565b8352918301918301610adc565b509695505050505050565b60008060408385031215610b1a57600080fd5b825167ffffffffffffffff80821115610b3257600080fd5b818501915085601f830112610b4657600080fd5b81516020610b56610ab483610a6f565b82815260059290921b84018101918181019089841115610b7557600080fd5b948201945b83861015610ba35785518060060b8114610b945760008081fd5b82529482019490820190610b7a565b91880151919650909350505080821115610bbc57600080fd5b50610bc985828601610a93565b9150509250929050565b634e487b7160e01b600052601160045260246000fd5b60008160060b8360060b6000811281667fffffffffffff1901831281151615610c1457610c14610bd3565b81667fffffffffffff018313811615610c2f57610c2f610bd3565b5090039392505050565b634e487b7160e01b600052601260045260246000fd5b60008160060b8360060b80610c6657610c66610c39565b667fffffffffffff19821460001982141615610c8457610c84610bd3565b90059392505050565b60008260060b80610ca057610ca0610c39565b808360060b0791505092915050565b60008160020b627fffff198103610cc857610cc8610bd3565b6000190192915050565b600060208284031215610ce457600080fd5b815161041c81610906565b6000816000190483118215151615610d0957610d09610bd3565b50029056fea2646970667358221220b274d6604404f8fdd87c4788979f7f4214565f718c71620c3e07dfb0d576795864736f6c634300080f0033",
  "linkReferences": {},
  "deployedLinkReferences": {}
}