{
  "_format": "hh-sol-artifact-1",
  "contractName": "TestUniswap",
  "sourceName": "contracts/uniswapv2swap.sol",
  "abi": [
    {
      "inputs": [
        {
          "internalType": "address",
          "name": "_tokenIn",
          "type": "address"
        },
        {
          "internalType": "address",
          "name": "_tokenOut",
          "type": "address"
        },
        {
          "internalType": "uint256",
          "name": "_amountIn",
          "type": "uint256"
        }
      ],
      "name": "getAmountOutMin",
      "outputs": [
        {
          "internalType": "uint256",
          "name": "",
          "type": "uint256"
        }
      ],
      "stateMutability": "view",
      "type": "function"
    }
  ],
  "bytecode": "0x608060405234801561001057600080fd5b506104ad806100206000396000f3fe608060405234801561001057600080fd5b506004361061002b5760003560e01c80633c50eec114610030575b600080fd5b61004361003e3660046102d5565b610055565b60405190815260200160405180910390f35b600060606001600160a01b03851673c02aaa39b223fe8d0a0e5c4f27ead9083c756cc214806100a057506001600160a01b03841673c02aaa39b223fe8d0a0e5c4f27ead9083c756cc2145b1561013257604080516002808252606082018352909160208301908036833701905050905084816000815181106100d9576100d9610327565b60200260200101906001600160a01b031690816001600160a01b031681525050838160018151811061010d5761010d610327565b60200260200101906001600160a01b031690816001600160a01b031681525050610204565b604080516003808252608082019092529060208201606080368337019050509050848160008151811061016757610167610327565b60200260200101906001600160a01b031690816001600160a01b03168152505073c02aaa39b223fe8d0a0e5c4f27ead9083c756cc2816001815181106101af576101af610327565b60200260200101906001600160a01b031690816001600160a01b03168152505083816002815181106101e3576101e3610327565b60200260200101906001600160a01b031690816001600160a01b0316815250505b60405163d06ca61f60e01b8152600090737a250d5630b4cf539739df2c5dacb4c659f2488d9063d06ca61f90610240908790869060040161033d565b600060405180830381865afa15801561025d573d6000803e3d6000fd5b505050506040513d6000823e601f3d908101601f191682016040526102859190810190610394565b905080600183516102969190610452565b815181106102a6576102a6610327565b6020026020010151925050509392505050565b80356001600160a01b03811681146102d057600080fd5b919050565b6000806000606084860312156102ea57600080fd5b6102f3846102b9565b9250610301602085016102b9565b9150604084013590509250925092565b634e487b7160e01b600052604160045260246000fd5b634e487b7160e01b600052603260045260246000fd5b6000604082018483526020604081850152818551808452606086019150828701935060005b818110156103875784516001600160a01b031683529383019391830191600101610362565b5090979650505050505050565b600060208083850312156103a757600080fd5b825167ffffffffffffffff808211156103bf57600080fd5b818501915085601f8301126103d357600080fd5b8151818111156103e5576103e5610311565b8060051b604051601f19603f8301168101818110858211171561040a5761040a610311565b60405291825284820192508381018501918883111561042857600080fd5b938501935b828510156104465784518452938501939285019261042d565b98975050505050505050565b60008282101561047257634e487b7160e01b600052601160045260246000fd5b50039056fea2646970667358221220c179f27485921e1bb58cee17333b9aa7f6227de3ef3b64cf44344a2e65c02e7364736f6c634300080f0033",
  "linkReferences": {},
  "deployedLinkReferences": {}
}