{
  "_format": "hh-sol-artifact-1",
  "contractName": "UniswapV3twap",
  "sourceName": "contracts/UniswapV3Oracle.sol",
  "abi": [
    {
      "inputs": [],
      "name": "T",
      "type": "error"
    },
    {
      "inputs": [],
      "name": "_factory",
      "outputs": [
        {
          "internalType": "address",
          "name": "",
          "type": "address"
        }
      ],
      "stateMutability": "view",
      "type": "function"
    },
    {
      "inputs": [
        {
          "internalType": "address",
          "name": "tokenIn",
          "type": "address"
        },
        {
          "internalType": "uint128",
          "name": "amountIn",
          "type": "uint128"
        },
        {
          "internalType": "uint32",
          "name": "secondsAgo",
          "type": "uint32"
        },
        {
          "internalType": "address",
          "name": "tokenOut",
          "type": "address"
        }
      ],
      "name": "estimateAmountOut",
      "outputs": [
        {
          "internalType": "uint256",
          "name": "amountOut",
          "type": "uint256"
        }
      ],
      "stateMutability": "view",
      "type": "function"
    }
  ],
  "bytecode": "0x60a0604052731f98431c8ad98523631ae4a59f267346ea31f98460805234801561002857600080fd5b50608051610c3361004a60003960008181606601526102850152610c336000f3fe608060405234801561001057600080fd5b50600436106100365760003560e01c80636f5b825d1461003b578063c5cc6b6a14610061575b600080fd5b61004e610049366004610846565b6100a0565b6040519081526020015b60405180910390f35b6100887f000000000000000000000000000000000000000000000000000000000000000081565b6040516001600160a01b039091168152602001610058565b6000806100b08684610bb861024e565b604080516002808252606082018352929350600092909160208301908036833701905050905084816000815181106100ea576100ea6108cd565b602002602001019063ffffffff16908163ffffffff1681525050600081600181518110610119576101196108cd565b63ffffffff9092166020928302919091019091015260405163883bdbfd60e01b81526000906001600160a01b0384169063883bdbfd9061015d9085906004016108e3565b600060405180830381865afa15801561017a573d6000803e3d6000fd5b505050506040513d6000823e601f3d908101601f191682016040526101a291908101906109f6565b5090506000816000815181106101ba576101ba6108cd565b6020026020010151826001815181106101d5576101d56108cd565b60200260200101516101e79190610ad8565b905060006101fb63ffffffff891683610b3e565b905060008260060b128015610221575061021b63ffffffff891683610b7c565b60060b15155b15610234578061023081610b9e565b9150505b610240818a8c8a61034b565b9a9950505050505050505050565b604051630b4c774160e11b81526001600160a01b038481166004830152838116602483015262ffffff8316604483015260009182917f00000000000000000000000000000000000000000000000000000000000000001690631698ee8290606401602060405180830381865afa1580156102cc573d6000803e3d6000fd5b505050506040513d601f19601f820116820180604052508101906102f09190610bc1565b90506001600160a01b0381166103415760405162461bcd60e51b81526020600482015260126024820152711c1bdbdb08191bd95cdb89dd08195e1a5cdd60721b604482015260640160405180910390fd5b90505b9392505050565b60008061035786610459565b90506001600160801b036001600160a01b038216116103dd5760006103856001600160a01b03831680610bde565b9050836001600160a01b0316856001600160a01b0316106103bd576103b8600160c01b876001600160801b03168361077c565b6103d5565b6103d581876001600160801b0316600160c01b61077c565b925050610450565b60006103fc6001600160a01b038316806801000000000000000061077c565b9050836001600160a01b0316856001600160a01b0316106104345761042f600160801b876001600160801b03168361077c565b61044c565b61044c81876001600160801b0316600160801b61077c565b9250505b50949350505050565b60008060008360020b12610470578260020b610478565b8260020b6000035b9050620d89e881111561049e576040516315e4079d60e11b815260040160405180910390fd5b6000816001166000036104b557600160801b6104c7565b6ffffcb933bd6fad37aa2d162d1a5940015b70ffffffffffffffffffffffffffffffffff16905060028216156104fb576ffff97272373d413259a46990580e213a0260801c5b600482161561051a576ffff2e50f5f656932ef12357cf3c7fdcc0260801c5b6008821615610539576fffe5caca7e10e4e61c3624eaa0941cd00260801c5b6010821615610558576fffcb9843d60f6159c9db58835c9266440260801c5b6020821615610577576fff973b41fa98c081472e6896dfb254c00260801c5b6040821615610596576fff2ea16466c96a3843ec78b326b528610260801c5b60808216156105b5576ffe5dee046a99a2a811c461f1969c30530260801c5b6101008216156105d5576ffcbe86c7900a88aedcffc83b479aa3a40260801c5b6102008216156105f5576ff987a7253ac413176f2b074cf7815e540260801c5b610400821615610615576ff3392b0822b70005940c7a398e4b70f30260801c5b610800821615610635576fe7159475a2c29b7443b29c7fa6e889d90260801c5b611000821615610655576fd097f3bdfd2022b8845ad8f792aa58250260801c5b612000821615610675576fa9f746462d870fdf8a65dc1f90e061e50260801c5b614000821615610695576f70d869a156d2a1b890bb3df62baf32f70260801c5b6180008216156106b5576f31be135f97d08fd981231505542fcfa60260801c5b620100008216156106d6576f09aa508b5b7a84e1c677de54f3e99bc90260801c5b620200008216156106f6576e5d6af8dedb81196699c329225ee6040260801c5b62040000821615610715576d2216e584f5fa1ea926041bedfe980260801c5b62080000821615610732576b048a170391f7dc42444e8fa20260801c5b60008460020b131561075357806000198161074f5761074f610b28565b0490505b64010000000081061561076757600161076a565b60005b60ff16602082901c0192505050919050565b60008080600019858709858702925082811083820303915050806000036107b557600084116107aa57600080fd5b508290049050610344565b8084116107c157600080fd5b6000848688096000868103871696879004966002600389028118808a02820302808a02820302808a02820302808a02820302808a02820302808a02909103029181900381900460010186841190950394909402919094039290920491909117919091029150509392505050565b6001600160a01b038116811461084357600080fd5b50565b6000806000806080858703121561085c57600080fd5b84356108678161082e565b935060208501356001600160801b038116811461088357600080fd5b9250604085013563ffffffff8116811461089c57600080fd5b915060608501356108ac8161082e565b939692955090935050565b634e487b7160e01b600052604160045260246000fd5b634e487b7160e01b600052603260045260246000fd5b6020808252825182820181905260009190848201906040850190845b8181101561092157835163ffffffff16835292840192918401916001016108ff565b50909695505050505050565b604051601f8201601f1916810167ffffffffffffffff81118282101715610956576109566108b7565b604052919050565b600067ffffffffffffffff821115610978576109786108b7565b5060051b60200190565b600082601f83011261099357600080fd5b815160206109a86109a38361095e565b61092d565b82815260059290921b840181019181810190868411156109c757600080fd5b8286015b848110156109eb5780516109de8161082e565b83529183019183016109cb565b509695505050505050565b60008060408385031215610a0957600080fd5b825167ffffffffffffffff80821115610a2157600080fd5b818501915085601f830112610a3557600080fd5b81516020610a456109a38361095e565b82815260059290921b84018101918181019089841115610a6457600080fd5b948201945b83861015610a925785518060060b8114610a835760008081fd5b82529482019490820190610a69565b91880151919650909350505080821115610aab57600080fd5b50610ab885828601610982565b9150509250929050565b634e487b7160e01b600052601160045260246000fd5b60008160060b8360060b6000811281667fffffffffffff1901831281151615610b0357610b03610ac2565b81667fffffffffffff018313811615610b1e57610b1e610ac2565b5090039392505050565b634e487b7160e01b600052601260045260246000fd5b60008160060b8360060b80610b5557610b55610b28565b667fffffffffffff19821460001982141615610b7357610b73610ac2565b90059392505050565b60008260060b80610b8f57610b8f610b28565b808360060b0791505092915050565b60008160020b627fffff198103610bb757610bb7610ac2565b6000190192915050565b600060208284031215610bd357600080fd5b81516103448161082e565b6000816000190483118215151615610bf857610bf8610ac2565b50029056fea2646970667358221220e5922f457b7ea657e87084715f80683b2916e36ada29e9d85b91361688fd84b664736f6c634300080f0033",
  "linkReferences": {},
  "deployedLinkReferences": {}
}