{
  "_format": "hh-sol-artifact-1",
  "contractName": "TestDyDxSoloMargin",
  "sourceName": "contracts/dydx.sol",
  "abi": [
    {
      "inputs": [],
      "name": "T",
      "type": "error"
    },
    {
      "inputs": [],
      "name": "_factory",
      "outputs": [
        {
          "internalType": "address",
          "name": "",
          "type": "address"
        }
      ],
      "stateMutability": "view",
      "type": "function"
    },
    {
      "inputs": [],
      "name": "balance1",
      "outputs": [
        {
          "internalType": "uint256",
          "name": "",
          "type": "uint256"
        }
      ],
      "stateMutability": "view",
      "type": "function"
    },
    {
      "inputs": [],
      "name": "balance2",
      "outputs": [
        {
          "internalType": "int256",
          "name": "",
          "type": "int256"
        }
      ],
      "stateMutability": "view",
      "type": "function"
    },
    {
      "inputs": [
        {
          "internalType": "address",
          "name": "sender",
          "type": "address"
        },
        {
          "components": [
            {
              "internalType": "address",
              "name": "owner",
              "type": "address"
            },
            {
              "internalType": "uint256",
              "name": "number",
              "type": "uint256"
            }
          ],
          "internalType": "struct Account.Info",
          "name": "account",
          "type": "tuple"
        },
        {
          "internalType": "bytes",
          "name": "data",
          "type": "bytes"
        }
      ],
      "name": "callFunction",
      "outputs": [],
      "stateMutability": "nonpayable",
      "type": "function"
    },
    {
      "inputs": [
        {
          "internalType": "address",
          "name": "tokenIn",
          "type": "address"
        },
        {
          "internalType": "uint128",
          "name": "amountIn",
          "type": "uint128"
        },
        {
          "internalType": "uint32",
          "name": "secondsAgo",
          "type": "uint32"
        },
        {
          "internalType": "address",
          "name": "tokenOut",
          "type": "address"
        }
      ],
      "name": "estimateAmountOut",
      "outputs": [
        {
          "internalType": "uint256",
          "name": "amountOut",
          "type": "uint256"
        }
      ],
      "stateMutability": "view",
      "type": "function"
    },
    {
      "inputs": [
        {
          "internalType": "address",
          "name": "_tokenIn",
          "type": "address"
        },
        {
          "internalType": "address",
          "name": "_tokenOut",
          "type": "address"
        },
        {
          "internalType": "uint256",
          "name": "_amountIn",
          "type": "uint256"
        }
      ],
      "name": "getAmountOutMin",
      "outputs": [
        {
          "internalType": "uint256",
          "name": "",
          "type": "uint256"
        }
      ],
      "stateMutability": "view",
      "type": "function"
    },
    {
      "inputs": [
        {
          "internalType": "address",
          "name": "token0",
          "type": "address"
        },
        {
          "internalType": "address",
          "name": "token1",
          "type": "address"
        }
      ],
      "name": "getPrice",
      "outputs": [
        {
          "internalType": "int256",
          "name": "",
          "type": "int256"
        }
      ],
      "stateMutability": "view",
      "type": "function"
    },
    {
      "inputs": [
        {
          "internalType": "address",
          "name": "_token",
          "type": "address"
        },
        {
          "internalType": "uint256",
          "name": "_amount",
          "type": "uint256"
        }
      ],
      "name": "initiateFlashLoan",
      "outputs": [],
      "stateMutability": "nonpayable",
      "type": "function"
    },
    {
      "inputs": [],
      "name": "repay",
      "outputs": [
        {
          "internalType": "uint256",
          "name": "",
          "type": "uint256"
        }
      ],
      "stateMutability": "view",
      "type": "function"
    },
    {
      "inputs": [],
      "name": "swapRouter",
      "outputs": [
        {
          "internalType": "contract ISwapRouter",
          "name": "",
          "type": "address"
        }
      ],
      "stateMutability": "view",
      "type": "function"
    },
    {
      "inputs": [
        {
          "internalType": "address",
          "name": "_token",
          "type": "address"
        },
        {
          "internalType": "uint256",
          "name": "_amount",
          "type": "uint256"
        }
      ],
      "name": "testSwap",
      "outputs": [
        {
          "internalType": "uint256",
          "name": "",
          "type": "uint256"
        }
      ],
      "stateMutability": "nonpayable",
      "type": "function"
    }
  ],
  "bytecode": "0x60a0604052731f98431c8ad98523631ae4a59f267346ea31f984608052600080546001600160a01b0319908116736b175474e89094c44da98b954eedeac495271d0f1782556001805490911673c02aaa39b223fe8d0a0e5c4f27ead9083c756cc21790556002819055600381905560045534801561007c57600080fd5b506080516124ea61009f600039600081816101750152610e1d01526124ea6000f3fe608060405234801561001057600080fd5b50600436106100a95760003560e01c80638b418713116100715780638b4187131461010e578063ac41865a14610121578063c31c9c0714610134578063c45c4f5814610167578063c5cc6b6a14610170578063f92efb521461019757600080fd5b80633c50eec1146100ae578063402d8883146100d457806340441eec146100dd5780635e2c1b3a146100e65780636f5b825d146100fb575b600080fd5b6100c16100bc366004611ad8565b6101aa565b6040519081526020015b60405180910390f35b6100c160035481565b6100c160045481565b6100f96100f4366004611b19565b61040f565b005b6100c1610109366004611b45565b61069a565b6100f961011c366004611c26565b610848565b6100c161012f366004611d0a565b610a0a565b61014f73e592427a0aece92de3edee1f18e0157c0586156481565b6040516001600160a01b0390911681526020016100cb565b6100c160025481565b61014f7f000000000000000000000000000000000000000000000000000000000000000081565b6100c16101a5366004611b19565b610a9f565b600060606001600160a01b03851673c02aaa39b223fe8d0a0e5c4f27ead9083c756cc214806101f557506001600160a01b03841673c02aaa39b223fe8d0a0e5c4f27ead9083c756cc2145b15610287576040805160028082526060820183529091602083019080368337019050509050848160008151811061022e5761022e611d43565b60200260200101906001600160a01b031690816001600160a01b031681525050838160018151811061026257610262611d43565b60200260200101906001600160a01b031690816001600160a01b031681525050610359565b60408051600380825260808201909252906020820160608036833701905050905084816000815181106102bc576102bc611d43565b60200260200101906001600160a01b031690816001600160a01b03168152505073c02aaa39b223fe8d0a0e5c4f27ead9083c756cc28160018151811061030457610304611d43565b60200260200101906001600160a01b031690816001600160a01b031681525050838160028151811061033857610338611d43565b60200260200101906001600160a01b031690816001600160a01b0316815250505b60405163d06ca61f60e01b8152600090737a250d5630b4cf539739df2c5dacb4c659f2488d9063d06ca61f906103959087908690600401611d9d565b600060405180830381865afa1580156103b2573d6000803e3d6000fd5b505050506040513d6000823e601f3d908101601f191682016040526103da9190810190611dda565b905080600183516103eb9190611e86565b815181106103fb576103fb611d43565b6020026020010151925050505b9392505050565b731e0447b19bb6ecfdae1e4ae1694b0c3659614e4e60006104308285610b38565b9050600061043d84610ca6565b60405163095ea7b360e01b8152731e0447b19bb6ecfdae1e4ae1694b0c3659614e4e6004820152602481018290529091506001600160a01b0386169063095ea7b3906044016020604051808303816000875af11580156104a1573d6000803e3d6000fd5b505050506040513d601f19601f820116820180604052508101906104c59190611e9d565b5060408051600380825260808201909252600091816020015b6104e6611a4a565b8152602001906001900390816104de5790505090506105058386610cb3565b8160008151811061051857610518611d43565b60200260200101819052506105686040518060400160405280886001600160a01b03168152602001848152506040516020016105549190611ebf565b604051602081830303815290604052610d3d565b8160018151811061057b5761057b611d43565b60200260200101819052506105908383610dab565b816002815181106105a3576105a3611d43565b6020908102919091010152604080516001808252818301909252600091816020015b60408051808201909152600080825260208201528152602001906001900390816105c5575050604080518082018252600080825260209182015281518083019092523082526001908201529091508160008151811061062657610626611d43565b602090810291909101015260405163a67a6a4560e01b81526001600160a01b0386169063a67a6a459061065f9084908690600401611f98565b600060405180830381600087803b15801561067957600080fd5b505af115801561068d573d6000803e3d6000fd5b5050505050505050505050565b6000806106aa8684610bb8610de6565b604080516002808252606082018352929350600092909160208301908036833701905050905084816000815181106106e4576106e4611d43565b602002602001019063ffffffff16908163ffffffff168152505060008160018151811061071357610713611d43565b63ffffffff9092166020928302919091019091015260405163883bdbfd60e01b81526000906001600160a01b0384169063883bdbfd906107579085906004016120d1565b600060405180830381865afa158015610774573d6000803e3d6000fd5b505050506040513d6000823e601f3d908101601f1916820160405261079c919081019061218a565b5090506000816000815181106107b4576107b4611d43565b6020026020010151826001815181106107cf576107cf611d43565b60200260200101516107e19190612256565b905060006107f563ffffffff8916836122bc565b905060008260060b12801561081b575061081563ffffffff8916836122fa565b60060b15155b1561082e578061082a8161231c565b9150505b61083a818a8c8a610edd565b9a9950505050505050505050565b33731e0447b19bb6ecfdae1e4ae1694b0c3659614e4e146108985760405162461bcd60e51b815260206004820152600560248201526421736f6c6f60d81b60448201526064015b60405180910390fd5b6001600160a01b03831630146108e15760405162461bcd60e51b815260206004820152600e60248201526d085d1a1a5cc818dbdb9d1c9858dd60921b604482015260640161088f565b6000818060200190518101906108f7919061233f565b602081015181516040516370a0823160e01b815230600482015292935090916000916001600160a01b0316906370a0823190602401602060405180830381865afa158015610949573d6000803e3d6000fd5b505050506040513d601f19601f8201168201806040525081019061096d9190612397565b9050818110156109ad5760405162461bcd60e51b815260206004820152600b60248201526a62616c203c20726570617960a81b604482015260640161088f565b600281905560038290556109c182826123b0565b60045560006109d18360026123ef565b60015460008054929350670de0b6b3a76400009290916109fe916001600160a01b03918216911685610feb565b50505050505050505050565b600080610a1a8484610bb8610de6565b90506001600160a01b038116610a7c5760405162461bcd60e51b815260206004820152602160248201527f506f6f6c20646f6573206e6f74206578697374206f6e20556e697377617020566044820152603360f81b606482015260840161088f565b6000610a9485670de0b6b3a76400006101f48761069a565b925050505b92915050565b600154600080549091670de0b6b3a764000091610acb916001600160a01b039081169116858430611125565b600080546040516370a0823160e01b81523060048201526001600160a01b03909116906370a0823190602401602060405180830381865afa158015610b14573d6000803e3d6000fd5b505050506040513d601f19601f82011682018060405250810190610a949190612397565b6000808390506000816001600160a01b031663295c39a56040518163ffffffff1660e01b8152600401602060405180830381865afa158015610b7e573d6000803e3d6000fd5b505050506040513d601f19601f82011682018060405250810190610ba29190612397565b90506000805b82811015610c515760405163062bd3e960e01b8152600481018290526001600160a01b0385169063062bd3e990602401602060405180830381865afa158015610bf5573d6000803e3d6000fd5b505050506040513d601f19601f82011682018060405250810190610c199190612407565b9150856001600160a01b0316826001600160a01b031603610c3f579350610a9992505050565b80610c4981612424565b915050610ba8565b5060405162461bcd60e51b8152602060048201526024808201527f4e6f206d61726b6574496420666f756e6420666f722070726f7669646564207460448201526337b5b2b760e11b606482015260840161088f565b6000610a9982600261145f565b610cbb611a4a565b604080516101008101825260018152600060208083018290528351608081018552828152929384019291908201905b81526020016000815260200185815250815260200184815260200160008152602001306001600160a01b031681526020016000815260200160405180602001604052806000815250815250905092915050565b610d45611a4a565b6040805161010081018252600881526000602080830182905283516080810185528281529293840192919082019081526020016000815260006020918201819052918352820181905260408201819052306060830152608082015260a001929092525090565b610db3611a4a565b60408051610100810182526000808252602080830182905283516080810185526001815292938401929190820190610cea565b604051630b4c774160e11b81526001600160a01b038481166004830152838116602483015262ffffff8316604483015260009182917f00000000000000000000000000000000000000000000000000000000000000001690631698ee8290606401602060405180830381865afa158015610e64573d6000803e3d6000fd5b505050506040513d601f19601f82011682018060405250810190610e889190612407565b90506001600160a01b038116610ed55760405162461bcd60e51b81526020600482015260126024820152711c1bdbdb08191bd95cdb89dd08195e1a5cdd60721b604482015260640161088f565b949350505050565b600080610ee98661146b565b90506001600160801b036001600160a01b03821611610f6f576000610f176001600160a01b0383168061243d565b9050836001600160a01b0316856001600160a01b031610610f4f57610f4a600160c01b876001600160801b03168361178e565b610f67565b610f6781876001600160801b0316600160c01b61178e565b925050610fe2565b6000610f8e6001600160a01b038316806801000000000000000061178e565b9050836001600160a01b0316856001600160a01b031610610fc657610fc1600160801b876001600160801b03168361178e565b610fde565b610fde81876001600160801b0316600160801b61178e565b9250505b50949350505050565b6000610ff984303085611840565b6110188473e592427a0aece92de3edee1f18e0157c058615648461194a565b60408051610100810182526001600160a01b03868116825285811660208301908152610bb88385019081523060608501908152426080860190815260a08601898152600060c0880181815260e08901918252985163414bf38960e01b8152885188166004820152955187166024870152935162ffffff1660448601529151851660648501525160848401525160a4830152935160c482015292511660e48301529073e592427a0aece92de3edee1f18e0157c058615649063414bf38990610104016020604051808303816000875af11580156110f8573d6000803e3d6000fd5b505050506040513d601f19601f8201168201806040525081019061111c9190612397565b95945050505050565b6040516323b872dd60e01b8152336004820152306024820152604481018490526001600160a01b038616906323b872dd906064016020604051808303816000875af1158015611178573d6000803e3d6000fd5b505050506040513d601f19601f8201168201806040525081019061119c9190611e9d565b5060405163095ea7b360e01b8152737a250d5630b4cf539739df2c5dacb4c659f2488d6004820152602481018490526001600160a01b0386169063095ea7b3906044016020604051808303816000875af11580156111fe573d6000803e3d6000fd5b505050506040513d601f19601f820116820180604052508101906112229190611e9d565b5060606001600160a01b03861673c02aaa39b223fe8d0a0e5c4f27ead9083c756cc2148061126c57506001600160a01b03851673c02aaa39b223fe8d0a0e5c4f27ead9083c756cc2145b156112fe57604080516002808252606082018352909160208301908036833701905050905085816000815181106112a5576112a5611d43565b60200260200101906001600160a01b031690816001600160a01b03168152505084816001815181106112d9576112d9611d43565b60200260200101906001600160a01b031690816001600160a01b0316815250506113d0565b604080516003808252608082019092529060208201606080368337019050509050858160008151811061133357611333611d43565b60200260200101906001600160a01b031690816001600160a01b03168152505073c02aaa39b223fe8d0a0e5c4f27ead9083c756cc28160018151811061137b5761137b611d43565b60200260200101906001600160a01b031690816001600160a01b03168152505084816002815181106113af576113af611d43565b60200260200101906001600160a01b031690816001600160a01b0316815250505b6040516338ed173960e01b8152737a250d5630b4cf539739df2c5dacb4c659f2488d906338ed17399061140f908790879086908890429060040161245c565b6000604051808303816000875af115801561142e573d6000803e3d6000fd5b505050506040513d6000823e601f3d908101601f191682016040526114569190810190611dda565b50505050505050565b600061040882846123ef565b60008060008360020b12611482578260020b61148a565b8260020b6000035b9050620d89e88111156114b0576040516315e4079d60e11b815260040160405180910390fd5b6000816001166000036114c757600160801b6114d9565b6ffffcb933bd6fad37aa2d162d1a5940015b70ffffffffffffffffffffffffffffffffff169050600282161561150d576ffff97272373d413259a46990580e213a0260801c5b600482161561152c576ffff2e50f5f656932ef12357cf3c7fdcc0260801c5b600882161561154b576fffe5caca7e10e4e61c3624eaa0941cd00260801c5b601082161561156a576fffcb9843d60f6159c9db58835c9266440260801c5b6020821615611589576fff973b41fa98c081472e6896dfb254c00260801c5b60408216156115a8576fff2ea16466c96a3843ec78b326b528610260801c5b60808216156115c7576ffe5dee046a99a2a811c461f1969c30530260801c5b6101008216156115e7576ffcbe86c7900a88aedcffc83b479aa3a40260801c5b610200821615611607576ff987a7253ac413176f2b074cf7815e540260801c5b610400821615611627576ff3392b0822b70005940c7a398e4b70f30260801c5b610800821615611647576fe7159475a2c29b7443b29c7fa6e889d90260801c5b611000821615611667576fd097f3bdfd2022b8845ad8f792aa58250260801c5b612000821615611687576fa9f746462d870fdf8a65dc1f90e061e50260801c5b6140008216156116a7576f70d869a156d2a1b890bb3df62baf32f70260801c5b6180008216156116c7576f31be135f97d08fd981231505542fcfa60260801c5b620100008216156116e8576f09aa508b5b7a84e1c677de54f3e99bc90260801c5b62020000821615611708576e5d6af8dedb81196699c329225ee6040260801c5b62040000821615611727576d2216e584f5fa1ea926041bedfe980260801c5b62080000821615611744576b048a170391f7dc42444e8fa20260801c5b60008460020b1315611765578060001981611761576117616122a6565b0490505b64010000000081061561177957600161177c565b60005b60ff16602082901c0192505050919050565b60008080600019858709858702925082811083820303915050806000036117c757600084116117bc57600080fd5b508290049050610408565b8084116117d357600080fd5b6000848688096000868103871696879004966002600389028118808a02820302808a02820302808a02820302808a02820302808a02820302808a02909103029181900381900460010186841190950394909402919094039290920491909117919091029150509392505050565b604080516001600160a01b0385811660248301528481166044830152606480830185905283518084039091018152608490920183526020820180516001600160e01b03166323b872dd60e01b17905291516000928392908816916118a49190612498565b6000604051808303816000865af19150503d80600081146118e1576040519150601f19603f3d011682016040523d82523d6000602084013e6118e6565b606091505b50915091508180156119105750805115806119105750808060200190518101906119109190611e9d565b6119425760405162461bcd60e51b815260206004820152600360248201526229aa2360e91b604482015260640161088f565b505050505050565b604080516001600160a01b038481166024830152604480830185905283518084039091018152606490920183526020820180516001600160e01b031663095ea7b360e01b17905291516000928392908716916119a69190612498565b6000604051808303816000865af19150503d80600081146119e3576040519150601f19603f3d011682016040523d82523d6000602084013e6119e8565b606091505b5091509150818015611a12575080511580611a12575080806020019051810190611a129190611e9d565b611a435760405162461bcd60e51b8152602060048201526002602482015261534160f01b604482015260640161088f565b5050505050565b604080516101008101825260008082526020820152908101611a8e604080516080810190915260008082526020820190815260200160008152602001600081525090565b8152602001600081526020016000815260200160006001600160a01b0316815260200160008152602001606081525090565b6001600160a01b0381168114611ad557600080fd5b50565b600080600060608486031215611aed57600080fd5b8335611af881611ac0565b92506020840135611b0881611ac0565b929592945050506040919091013590565b60008060408385031215611b2c57600080fd5b8235611b3781611ac0565b946020939093013593505050565b60008060008060808587031215611b5b57600080fd5b8435611b6681611ac0565b935060208501356001600160801b0381168114611b8257600080fd5b9250604085013563ffffffff81168114611b9b57600080fd5b91506060850135611bab81611ac0565b939692955090935050565b634e487b7160e01b600052604160045260246000fd5b6040805190810167ffffffffffffffff81118282101715611bef57611bef611bb6565b60405290565b604051601f8201601f1916810167ffffffffffffffff81118282101715611c1e57611c1e611bb6565b604052919050565b60008060008385036080811215611c3c57600080fd5b8435611c4781611ac0565b93506020601f1960408382011215611c5e57600080fd5b611c66611bcc565b925081870135611c7581611ac0565b835260408701358284015291935060608601359167ffffffffffffffff80841115611c9f57600080fd5b838801935088601f850112611cb357600080fd5b833581811115611cc557611cc5611bb6565b611cd58484601f84011601611bf5565b92508083528984828701011115611ceb57600080fd5b8084860185850137600084828501015250508093505050509250925092565b60008060408385031215611d1d57600080fd5b8235611d2881611ac0565b91506020830135611d3881611ac0565b809150509250929050565b634e487b7160e01b600052603260045260246000fd5b600081518084526020808501945080840160005b83811015611d925781516001600160a01b031687529582019590820190600101611d6d565b509495945050505050565b828152604060208201526000610ed56040830184611d59565b600067ffffffffffffffff821115611dd057611dd0611bb6565b5060051b60200190565b60006020808385031215611ded57600080fd5b825167ffffffffffffffff811115611e0457600080fd5b8301601f81018513611e1557600080fd5b8051611e28611e2382611db6565b611bf5565b81815260059190911b82018301908381019087831115611e4757600080fd5b928401925b82841015611e6557835182529284019290840190611e4c565b979650505050505050565b634e487b7160e01b600052601160045260246000fd5b600082821015611e9857611e98611e70565b500390565b600060208284031215611eaf57600080fd5b8151801515811461040857600080fd5b81516001600160a01b031681526020808301519082015260408101610a99565b634e487b7160e01b600052602160045260246000fd5b60028110611ad557611ad5611edf565b8051151582526020810151611f1981611ef5565b60208301526040810151611f2c81611ef5565b6040830152606090810151910152565b60005b83811015611f57578181015183820152602001611f3f565b83811115611f66576000848401525b50505050565b60008151808452611f84816020860160208601611f3c565b601f01601f19169290920160200192915050565b6040808252835182820181905260009190606090818501906020808901865b83811015611fed57611fdd85835180516001600160a01b03168252602090810151910152565b9386019390820190600101611fb7565b50508683038188015287518084528184019250600581901b8401820189830160005b838110156120c057601f19878403018652815161016081516009811061203757612037611edf565b855281870151878601528a8201516120518c870182611f05565b508982015160c081818801526080840151915060e0828189015260a085015192506120886101008901846001600160a01b03169052565b9084015161012088015290920151610140860182905291506120ac81860183611f6c565b97870197945050509084019060010161200f565b50909b9a5050505050505050505050565b6020808252825182820181905260009190848201906040850190845b8181101561210f57835163ffffffff16835292840192918401916001016120ed565b50909695505050505050565b600082601f83011261212c57600080fd5b8151602061213c611e2383611db6565b82815260059290921b8401810191818101908684111561215b57600080fd5b8286015b8481101561217f57805161217281611ac0565b835291830191830161215f565b509695505050505050565b6000806040838503121561219d57600080fd5b825167ffffffffffffffff808211156121b557600080fd5b818501915085601f8301126121c957600080fd5b815160206121d9611e2383611db6565b82815260059290921b840181019181810190898411156121f857600080fd5b948201945b838610156122265785518060060b81146122175760008081fd5b825294820194908201906121fd565b9188015191965090935050508082111561223f57600080fd5b5061224c8582860161211b565b9150509250929050565b60008160060b8360060b6000811281667fffffffffffff190183128115161561228157612281611e70565b81667fffffffffffff01831381161561229c5761229c611e70565b5090039392505050565b634e487b7160e01b600052601260045260246000fd5b60008160060b8360060b806122d3576122d36122a6565b667fffffffffffff198214600019821416156122f1576122f1611e70565b90059392505050565b60008260060b8061230d5761230d6122a6565b808360060b0791505092915050565b60008160020b627fffff19810361233557612335611e70565b6000190192915050565b60006040828403121561235157600080fd5b6040516040810181811067ffffffffffffffff8211171561237457612374611bb6565b604052825161238281611ac0565b81526020928301519281019290925250919050565b6000602082840312156123a957600080fd5b5051919050565b60008083128015600160ff1b8501841216156123ce576123ce611e70565b6001600160ff1b03840183138116156123e9576123e9611e70565b50500390565b6000821982111561240257612402611e70565b500190565b60006020828403121561241957600080fd5b815161040881611ac0565b60006001820161243657612436611e70565b5060010190565b600081600019048311821515161561245757612457611e70565b500290565b85815284602082015260a06040820152600061247b60a0830186611d59565b6001600160a01b0394909416606083015250608001529392505050565b600082516124aa818460208701611f3c565b919091019291505056fea264697066735822122080f79d6f8f525310db7b7e59d4b25585e04a2ca40b60fef30771c082f7e2ce8964736f6c634300080f0033",
  "linkReferences": {},
  "deployedLinkReferences": {}
}