{
  "_format": "hh-sol-artifact-1",
  "contractName": "TestDyDxSoloMargin",
  "sourceName": "contracts/dydx.sol",
  "abi": [
    {
      "inputs": [],
      "name": "T",
      "type": "error"
    },
    {
      "inputs": [],
      "name": "UNISWAP_V2_ROUTER",
      "outputs": [
        {
          "internalType": "address",
          "name": "",
          "type": "address"
        }
      ],
      "stateMutability": "view",
      "type": "function"
    },
    {
      "inputs": [],
      "name": "_factory",
      "outputs": [
        {
          "internalType": "address",
          "name": "",
          "type": "address"
        }
      ],
      "stateMutability": "view",
      "type": "function"
    },
    {
      "inputs": [],
      "name": "balance1",
      "outputs": [
        {
          "internalType": "uint256",
          "name": "",
          "type": "uint256"
        }
      ],
      "stateMutability": "view",
      "type": "function"
    },
    {
      "inputs": [],
      "name": "balance2",
      "outputs": [
        {
          "internalType": "int256",
          "name": "",
          "type": "int256"
        }
      ],
      "stateMutability": "view",
      "type": "function"
    },
    {
      "inputs": [
        {
          "internalType": "address",
          "name": "sender",
          "type": "address"
        },
        {
          "components": [
            {
              "internalType": "address",
              "name": "owner",
              "type": "address"
            },
            {
              "internalType": "uint256",
              "name": "number",
              "type": "uint256"
            }
          ],
          "internalType": "struct Account.Info",
          "name": "account",
          "type": "tuple"
        },
        {
          "internalType": "bytes",
          "name": "data",
          "type": "bytes"
        }
      ],
      "name": "callFunction",
      "outputs": [],
      "stateMutability": "nonpayable",
      "type": "function"
    },
    {
      "inputs": [
        {
          "internalType": "address",
          "name": "tokenIn",
          "type": "address"
        },
        {
          "internalType": "uint128",
          "name": "amountIn",
          "type": "uint128"
        },
        {
          "internalType": "uint32",
          "name": "secondsAgo",
          "type": "uint32"
        },
        {
          "internalType": "address",
          "name": "tokenOut",
          "type": "address"
        }
      ],
      "name": "estimateAmountOut",
      "outputs": [
        {
          "internalType": "uint256",
          "name": "amountOut",
          "type": "uint256"
        }
      ],
      "stateMutability": "view",
      "type": "function"
    },
    {
      "inputs": [
        {
          "internalType": "address",
          "name": "_tokenIn",
          "type": "address"
        },
        {
          "internalType": "address",
          "name": "_tokenOut",
          "type": "address"
        }
      ],
      "name": "getAmountOutMin",
      "outputs": [
        {
          "internalType": "uint256",
          "name": "",
          "type": "uint256"
        }
      ],
      "stateMutability": "view",
      "type": "function"
    },
    {
      "inputs": [
        {
          "internalType": "address",
          "name": "token0",
          "type": "address"
        },
        {
          "internalType": "address",
          "name": "token1",
          "type": "address"
        }
      ],
      "name": "getPrice",
      "outputs": [
        {
          "internalType": "int256",
          "name": "",
          "type": "int256"
        }
      ],
      "stateMutability": "view",
      "type": "function"
    },
    {
      "inputs": [
        {
          "internalType": "address",
          "name": "_token",
          "type": "address"
        },
        {
          "internalType": "uint256",
          "name": "_amount",
          "type": "uint256"
        }
      ],
      "name": "initiateFlashLoan",
      "outputs": [],
      "stateMutability": "nonpayable",
      "type": "function"
    },
    {
      "inputs": [],
      "name": "repay",
      "outputs": [
        {
          "internalType": "uint256",
          "name": "",
          "type": "uint256"
        }
      ],
      "stateMutability": "view",
      "type": "function"
    },
    {
      "inputs": [],
      "name": "swapRouter",
      "outputs": [
        {
          "internalType": "contract ISwapRouter",
          "name": "",
          "type": "address"
        }
      ],
      "stateMutability": "view",
      "type": "function"
    },
    {
      "inputs": [
        {
          "internalType": "address",
          "name": "token0",
          "type": "address"
        },
        {
          "internalType": "address",
          "name": "token1",
          "type": "address"
        },
        {
          "internalType": "uint256",
          "name": "amountIn",
          "type": "uint256"
        },
        {
          "internalType": "uint256",
          "name": "amountOutMin",
          "type": "uint256"
        }
      ],
      "name": "swapV2",
      "outputs": [],
      "stateMutability": "nonpayable",
      "type": "function"
    }
  ],
  "bytecode": "0x60a0604052731f98431c8ad98523631ae4a59f267346ea31f984608052600080546001600160a01b0319908116736b175474e89094c44da98b954eedeac495271d0f1782556001805490911673c02aaa39b223fe8d0a0e5c4f27ead9083c756cc21790556002819055600381905560045534801561007c57600080fd5b5060805161229961009f600039600081816101ae0152610f0801526122996000f3fe608060405234801561001057600080fd5b50600436106100b45760003560e01c80638b418713116100715780638b4187131461012c578063a82ed9ec1461013f578063ac41865a14610172578063c31c9c0714610185578063c45c4f58146101a0578063c5cc6b6a146101a957600080fd5b806332a6c924146100b9578063402d8883146100df57806340441eec146100e85780635e2c1b3a146100f15780636f5b825d1461010657806380951dce14610119575b600080fd5b6100cc6100c736600461187a565b6101d0565b6040519081526020015b60405180910390f35b6100cc60035481565b6100cc60045481565b6101046100ff3660046118b3565b61043c565b005b6100cc6101143660046118df565b6106c7565b610104610127366004611950565b610875565b61010461013a366004611a06565b6109ae565b61015a737a250d5630b4cf539739df2c5dacb4c659f2488d81565b6040516001600160a01b0390911681526020016100d6565b6100cc61018036600461187a565b610b90565b61015a73e592427a0aece92de3edee1f18e0157c0586156481565b6100cc60025481565b61015a7f000000000000000000000000000000000000000000000000000000000000000081565b600060606001600160a01b03841673c02aaa39b223fe8d0a0e5c4f27ead9083c756cc2148061021b57506001600160a01b03831673c02aaa39b223fe8d0a0e5c4f27ead9083c756cc2145b156102ad576040805160028082526060820183529091602083019080368337019050509050838160008151811061025457610254611aea565b60200260200101906001600160a01b031690816001600160a01b031681525050828160018151811061028857610288611aea565b60200260200101906001600160a01b031690816001600160a01b03168152505061037f565b60408051600380825260808201909252906020820160608036833701905050905083816000815181106102e2576102e2611aea565b60200260200101906001600160a01b031690816001600160a01b03168152505073c02aaa39b223fe8d0a0e5c4f27ead9083c756cc28160018151811061032a5761032a611aea565b60200260200101906001600160a01b031690816001600160a01b031681525050828160028151811061035e5761035e611aea565b60200260200101906001600160a01b031690816001600160a01b0316815250505b60405163d06ca61f60e01b8152600090737a250d5630b4cf539739df2c5dacb4c659f2488d9063d06ca61f906103c390670de0b6b3a7640000908690600401611b44565b600060405180830381865afa1580156103e0573d6000803e3d6000fd5b505050506040513d6000823e601f3d908101601f191682016040526104089190810190611b89565b905080600183516104199190611c35565b8151811061042957610429611aea565b6020026020010151925050505b92915050565b731e0447b19bb6ecfdae1e4ae1694b0c3659614e4e600061045d8285610c23565b9050600061046a84610d91565b60405163095ea7b360e01b8152731e0447b19bb6ecfdae1e4ae1694b0c3659614e4e6004820152602481018290529091506001600160a01b0386169063095ea7b3906044016020604051808303816000875af11580156104ce573d6000803e3d6000fd5b505050506040513d601f19601f820116820180604052508101906104f29190611c4c565b5060408051600380825260808201909252600091816020015b6105136117ec565b81526020019060019003908161050b5790505090506105328386610d9e565b8160008151811061054557610545611aea565b60200260200101819052506105956040518060400160405280886001600160a01b03168152602001848152506040516020016105819190611c6e565b604051602081830303815290604052610e28565b816001815181106105a8576105a8611aea565b60200260200101819052506105bd8383610e96565b816002815181106105d0576105d0611aea565b6020908102919091010152604080516001808252818301909252600091816020015b60408051808201909152600080825260208201528152602001906001900390816105f2575050604080518082018252600080825260209182015281518083019092523082526001908201529091508160008151811061065357610653611aea565b602090810291909101015260405163a67a6a4560e01b81526001600160a01b0386169063a67a6a459061068c9084908690600401611d47565b600060405180830381600087803b1580156106a657600080fd5b505af11580156106ba573d6000803e3d6000fd5b5050505050505050505050565b6000806106d78684610bb8610ed1565b6040805160028082526060820183529293506000929091602083019080368337019050509050848160008151811061071157610711611aea565b602002602001019063ffffffff16908163ffffffff168152505060008160018151811061074057610740611aea565b63ffffffff9092166020928302919091019091015260405163883bdbfd60e01b81526000906001600160a01b0384169063883bdbfd90610784908590600401611e80565b600060405180830381865afa1580156107a1573d6000803e3d6000fd5b505050506040513d6000823e601f3d908101601f191682016040526107c99190810190611f39565b5090506000816000815181106107e1576107e1611aea565b6020026020010151826001815181106107fc576107fc611aea565b602002602001015161080e9190612005565b9050600061082263ffffffff89168361206b565b905060008260060b128015610848575061084263ffffffff8916836120a9565b60060b15155b1561085b5780610857816120cb565b9150505b610867818a8c8a610fca565b9a9950505050505050505050565b610881843030856110d8565b6108a084737a250d5630b4cf539739df2c5dacb4c659f2488d846111da565b604080516002808252606080830184529260208301908036833701905050905084816000815181106108d4576108d4611aea565b60200260200101906001600160a01b031690816001600160a01b031681525050838160018151811061090857610908611aea565b6001600160a01b03909216602092830291909101909101526040516338ed173960e01b8152737a250d5630b4cf539739df2c5dacb4c659f2488d906338ed17399061095f90869086908690309042906004016120ee565b6000604051808303816000875af115801561097e573d6000803e3d6000fd5b505050506040513d6000823e601f3d908101601f191682016040526109a69190810190611b89565b505050505050565b33731e0447b19bb6ecfdae1e4ae1694b0c3659614e4e146109fe5760405162461bcd60e51b815260206004820152600560248201526421736f6c6f60d81b60448201526064015b60405180910390fd5b6001600160a01b0383163014610a475760405162461bcd60e51b815260206004820152600e60248201526d085d1a1a5cc818dbdb9d1c9858dd60921b60448201526064016109f5565b600081806020019051810190610a5d919061212a565b602081015181516040516370a0823160e01b815230600482015292935090916000916001600160a01b0316906370a0823190602401602060405180830381865afa158015610aaf573d6000803e3d6000fd5b505050506040513d601f19601f82011682018060405250810190610ad39190612182565b905081811015610b135760405162461bcd60e51b815260206004820152600b60248201526a62616c203c20726570617960a81b60448201526064016109f5565b60028190556003829055610b27828261219b565b6004556000610b378360026121da565b60015460008054929350670de0b6b3a7640000929091610b64916001600160a01b039182169116856112da565b600054600154919250610b85916001600160a01b0391821691168385610875565b505050505050505050565b600080610ba08484610bb8610ed1565b90506001600160a01b038116610c025760405162461bcd60e51b815260206004820152602160248201527f506f6f6c20646f6573206e6f74206578697374206f6e20556e697377617020566044820152603360f81b60648201526084016109f5565b6000610c1a85670de0b6b3a76400006101f4876106c7565b95945050505050565b6000808390506000816001600160a01b031663295c39a56040518163ffffffff1660e01b8152600401602060405180830381865afa158015610c69573d6000803e3d6000fd5b505050506040513d601f19601f82011682018060405250810190610c8d9190612182565b90506000805b82811015610d3c5760405163062bd3e960e01b8152600481018290526001600160a01b0385169063062bd3e990602401602060405180830381865afa158015610ce0573d6000803e3d6000fd5b505050506040513d601f19601f82011682018060405250810190610d0491906121f2565b9150856001600160a01b0316826001600160a01b031603610d2a57935061043692505050565b80610d348161220f565b915050610c93565b5060405162461bcd60e51b8152602060048201526024808201527f4e6f206d61726b6574496420666f756e6420666f722070726f7669646564207460448201526337b5b2b760e11b60648201526084016109f5565b600061043682600261140b565b610da66117ec565b604080516101008101825260018152600060208083018290528351608081018552828152929384019291908201905b81526020016000815260200185815250815260200184815260200160008152602001306001600160a01b031681526020016000815260200160405180602001604052806000815250815250905092915050565b610e306117ec565b6040805161010081018252600881526000602080830182905283516080810185528281529293840192919082019081526020016000815260006020918201819052918352820181905260408201819052306060830152608082015260a001929092525090565b610e9e6117ec565b60408051610100810182526000808252602080830182905283516080810185526001815292938401929190820190610dd5565b604051630b4c774160e11b81526001600160a01b038481166004830152838116602483015262ffffff8316604483015260009182917f00000000000000000000000000000000000000000000000000000000000000001690631698ee8290606401602060405180830381865afa158015610f4f573d6000803e3d6000fd5b505050506040513d601f19601f82011682018060405250810190610f7391906121f2565b90506001600160a01b038116610fc05760405162461bcd60e51b81526020600482015260126024820152711c1bdbdb08191bd95cdb89dd08195e1a5cdd60721b60448201526064016109f5565b90505b9392505050565b600080610fd686611417565b90506001600160801b036001600160a01b0382161161105c5760006110046001600160a01b03831680612228565b9050836001600160a01b0316856001600160a01b03161061103c57611037600160c01b876001600160801b03168361173a565b611054565b61105481876001600160801b0316600160c01b61173a565b9250506110cf565b600061107b6001600160a01b038316806801000000000000000061173a565b9050836001600160a01b0316856001600160a01b0316106110b3576110ae600160801b876001600160801b03168361173a565b6110cb565b6110cb81876001600160801b0316600160801b61173a565b9250505b50949350505050565b604080516001600160a01b0385811660248301528481166044830152606480830185905283518084039091018152608490920183526020820180516001600160e01b03166323b872dd60e01b179052915160009283929088169161113c9190612247565b6000604051808303816000865af19150503d8060008114611179576040519150601f19603f3d011682016040523d82523d6000602084013e61117e565b606091505b50915091508180156111a85750805115806111a85750808060200190518101906111a89190611c4c565b6109a65760405162461bcd60e51b815260206004820152600360248201526229aa2360e91b60448201526064016109f5565b604080516001600160a01b038481166024830152604480830185905283518084039091018152606490920183526020820180516001600160e01b031663095ea7b360e01b17905291516000928392908716916112369190612247565b6000604051808303816000865af19150503d8060008114611273576040519150601f19603f3d011682016040523d82523d6000602084013e611278565b606091505b50915091508180156112a25750805115806112a25750808060200190518101906112a29190611c4c565b6112d35760405162461bcd60e51b8152602060048201526002602482015261534160f01b60448201526064016109f5565b5050505050565b60006112e8843030856110d8565b6113078473e592427a0aece92de3edee1f18e0157c05861564846111da565b60408051610100810182526001600160a01b03868116825285811660208301908152610bb88385019081523060608501908152426080860190815260a08601898152600060c0880181815260e08901918252985163414bf38960e01b8152885188166004820152955187166024870152935162ffffff1660448601529151851660648501525160848401525160a4830152935160c482015292511660e48301529073e592427a0aece92de3edee1f18e0157c058615649063414bf38990610104016020604051808303816000875af11580156113e7573d6000803e3d6000fd5b505050506040513d601f19601f82011682018060405250810190610c1a9190612182565b6000610fc382846121da565b60008060008360020b1261142e578260020b611436565b8260020b6000035b9050620d89e881111561145c576040516315e4079d60e11b815260040160405180910390fd5b60008160011660000361147357600160801b611485565b6ffffcb933bd6fad37aa2d162d1a5940015b70ffffffffffffffffffffffffffffffffff16905060028216156114b9576ffff97272373d413259a46990580e213a0260801c5b60048216156114d8576ffff2e50f5f656932ef12357cf3c7fdcc0260801c5b60088216156114f7576fffe5caca7e10e4e61c3624eaa0941cd00260801c5b6010821615611516576fffcb9843d60f6159c9db58835c9266440260801c5b6020821615611535576fff973b41fa98c081472e6896dfb254c00260801c5b6040821615611554576fff2ea16466c96a3843ec78b326b528610260801c5b6080821615611573576ffe5dee046a99a2a811c461f1969c30530260801c5b610100821615611593576ffcbe86c7900a88aedcffc83b479aa3a40260801c5b6102008216156115b3576ff987a7253ac413176f2b074cf7815e540260801c5b6104008216156115d3576ff3392b0822b70005940c7a398e4b70f30260801c5b6108008216156115f3576fe7159475a2c29b7443b29c7fa6e889d90260801c5b611000821615611613576fd097f3bdfd2022b8845ad8f792aa58250260801c5b612000821615611633576fa9f746462d870fdf8a65dc1f90e061e50260801c5b614000821615611653576f70d869a156d2a1b890bb3df62baf32f70260801c5b618000821615611673576f31be135f97d08fd981231505542fcfa60260801c5b62010000821615611694576f09aa508b5b7a84e1c677de54f3e99bc90260801c5b620200008216156116b4576e5d6af8dedb81196699c329225ee6040260801c5b620400008216156116d3576d2216e584f5fa1ea926041bedfe980260801c5b620800008216156116f0576b048a170391f7dc42444e8fa20260801c5b60008460020b131561171157806000198161170d5761170d612055565b0490505b640100000000810615611725576001611728565b60005b60ff16602082901c0192505050919050565b6000808060001985870985870292508281108382030391505080600003611773576000841161176857600080fd5b508290049050610fc3565b80841161177f57600080fd5b6000848688096000868103871696879004966002600389028118808a02820302808a02820302808a02820302808a02820302808a02820302808a02909103029181900381900460010186841190950394909402919094039290920491909117919091029150509392505050565b604080516101008101825260008082526020820152908101611830604080516080810190915260008082526020820190815260200160008152602001600081525090565b8152602001600081526020016000815260200160006001600160a01b0316815260200160008152602001606081525090565b6001600160a01b038116811461187757600080fd5b50565b6000806040838503121561188d57600080fd5b823561189881611862565b915060208301356118a881611862565b809150509250929050565b600080604083850312156118c657600080fd5b82356118d181611862565b946020939093013593505050565b600080600080608085870312156118f557600080fd5b843561190081611862565b935060208501356001600160801b038116811461191c57600080fd5b9250604085013563ffffffff8116811461193557600080fd5b9150606085013561194581611862565b939692955090935050565b6000806000806080858703121561196657600080fd5b843561197181611862565b9350602085013561198181611862565b93969395505050506040820135916060013590565b634e487b7160e01b600052604160045260246000fd5b6040805190810167ffffffffffffffff811182821017156119cf576119cf611996565b60405290565b604051601f8201601f1916810167ffffffffffffffff811182821017156119fe576119fe611996565b604052919050565b60008060008385036080811215611a1c57600080fd5b8435611a2781611862565b93506020601f1960408382011215611a3e57600080fd5b611a466119ac565b925081870135611a5581611862565b835260408701358284015291935060608601359167ffffffffffffffff80841115611a7f57600080fd5b838801935088601f850112611a9357600080fd5b833581811115611aa557611aa5611996565b611ab58484601f840116016119d5565b92508083528984828701011115611acb57600080fd5b8084860185850137600084828501015250508093505050509250925092565b634e487b7160e01b600052603260045260246000fd5b600081518084526020808501945080840160005b83811015611b395781516001600160a01b031687529582019590820190600101611b14565b509495945050505050565b828152604060208201526000611b5d6040830184611b00565b949350505050565b600067ffffffffffffffff821115611b7f57611b7f611996565b5060051b60200190565b60006020808385031215611b9c57600080fd5b825167ffffffffffffffff811115611bb357600080fd5b8301601f81018513611bc457600080fd5b8051611bd7611bd282611b65565b6119d5565b81815260059190911b82018301908381019087831115611bf657600080fd5b928401925b82841015611c1457835182529284019290840190611bfb565b979650505050505050565b634e487b7160e01b600052601160045260246000fd5b600082821015611c4757611c47611c1f565b500390565b600060208284031215611c5e57600080fd5b81518015158114610fc357600080fd5b81516001600160a01b031681526020808301519082015260408101610436565b634e487b7160e01b600052602160045260246000fd5b6002811061187757611877611c8e565b8051151582526020810151611cc881611ca4565b60208301526040810151611cdb81611ca4565b6040830152606090810151910152565b60005b83811015611d06578181015183820152602001611cee565b83811115611d15576000848401525b50505050565b60008151808452611d33816020860160208601611ceb565b601f01601f19169290920160200192915050565b6040808252835182820181905260009190606090818501906020808901865b83811015611d9c57611d8c85835180516001600160a01b03168252602090810151910152565b9386019390820190600101611d66565b50508683038188015287518084528184019250600581901b8401820189830160005b83811015611e6f57601f198784030186528151610160815160098110611de657611de6611c8e565b855281870151878601528a820151611e008c870182611cb4565b508982015160c081818801526080840151915060e0828189015260a08501519250611e376101008901846001600160a01b03169052565b908401516101208801529092015161014086018290529150611e5b81860183611d1b565b978701979450505090840190600101611dbe565b50909b9a5050505050505050505050565b6020808252825182820181905260009190848201906040850190845b81811015611ebe57835163ffffffff1683529284019291840191600101611e9c565b50909695505050505050565b600082601f830112611edb57600080fd5b81516020611eeb611bd283611b65565b82815260059290921b84018101918181019086841115611f0a57600080fd5b8286015b84811015611f2e578051611f2181611862565b8352918301918301611f0e565b509695505050505050565b60008060408385031215611f4c57600080fd5b825167ffffffffffffffff80821115611f6457600080fd5b818501915085601f830112611f7857600080fd5b81516020611f88611bd283611b65565b82815260059290921b84018101918181019089841115611fa757600080fd5b948201945b83861015611fd55785518060060b8114611fc65760008081fd5b82529482019490820190611fac565b91880151919650909350505080821115611fee57600080fd5b50611ffb85828601611eca565b9150509250929050565b60008160060b8360060b6000811281667fffffffffffff190183128115161561203057612030611c1f565b81667fffffffffffff01831381161561204b5761204b611c1f565b5090039392505050565b634e487b7160e01b600052601260045260246000fd5b60008160060b8360060b8061208257612082612055565b667fffffffffffff198214600019821416156120a0576120a0611c1f565b90059392505050565b60008260060b806120bc576120bc612055565b808360060b0791505092915050565b60008160020b627fffff1981036120e4576120e4611c1f565b6000190192915050565b85815284602082015260a06040820152600061210d60a0830186611b00565b6001600160a01b0394909416606083015250608001529392505050565b60006040828403121561213c57600080fd5b6040516040810181811067ffffffffffffffff8211171561215f5761215f611996565b604052825161216d81611862565b81526020928301519281019290925250919050565b60006020828403121561219457600080fd5b5051919050565b60008083128015600160ff1b8501841216156121b9576121b9611c1f565b6001600160ff1b03840183138116156121d4576121d4611c1f565b50500390565b600082198211156121ed576121ed611c1f565b500190565b60006020828403121561220457600080fd5b8151610fc381611862565b60006001820161222157612221611c1f565b5060010190565b600081600019048311821515161561224257612242611c1f565b500290565b60008251612259818460208701611ceb565b919091019291505056fea26469706673582212202bdcb608bc9b2ba471b5d159f5d239bf42461ddbfc1cf52ddcfac06382b3a7c264736f6c634300080f0033",
  "linkReferences": {},
  "deployedLinkReferences": {}
}