{
  "_format": "hh-sol-artifact-1",
  "contractName": "TestDyDxSoloMargin",
  "sourceName": "contracts/dydx.sol",
  "abi": [
    {
      "inputs": [],
      "name": "T",
      "type": "error"
    },
    {
      "inputs": [],
      "name": "_factory",
      "outputs": [
        {
          "internalType": "address",
          "name": "",
          "type": "address"
        }
      ],
      "stateMutability": "view",
      "type": "function"
    },
    {
      "inputs": [],
      "name": "balance1",
      "outputs": [
        {
          "internalType": "uint256",
          "name": "",
          "type": "uint256"
        }
      ],
      "stateMutability": "view",
      "type": "function"
    },
    {
      "inputs": [],
      "name": "balance2",
      "outputs": [
        {
          "internalType": "int256",
          "name": "",
          "type": "int256"
        }
      ],
      "stateMutability": "view",
      "type": "function"
    },
    {
      "inputs": [
        {
          "internalType": "address",
          "name": "sender",
          "type": "address"
        },
        {
          "components": [
            {
              "internalType": "address",
              "name": "owner",
              "type": "address"
            },
            {
              "internalType": "uint256",
              "name": "number",
              "type": "uint256"
            }
          ],
          "internalType": "struct Account.Info",
          "name": "account",
          "type": "tuple"
        },
        {
          "internalType": "bytes",
          "name": "data",
          "type": "bytes"
        }
      ],
      "name": "callFunction",
      "outputs": [],
      "stateMutability": "nonpayable",
      "type": "function"
    },
    {
      "inputs": [
        {
          "internalType": "address",
          "name": "tokenIn",
          "type": "address"
        },
        {
          "internalType": "uint128",
          "name": "amountIn",
          "type": "uint128"
        },
        {
          "internalType": "uint32",
          "name": "secondsAgo",
          "type": "uint32"
        },
        {
          "internalType": "address",
          "name": "tokenOut",
          "type": "address"
        }
      ],
      "name": "estimateAmountOut",
      "outputs": [
        {
          "internalType": "uint256",
          "name": "amountOut",
          "type": "uint256"
        }
      ],
      "stateMutability": "view",
      "type": "function"
    },
    {
      "inputs": [
        {
          "internalType": "address",
          "name": "_tokenIn",
          "type": "address"
        },
        {
          "internalType": "address",
          "name": "_tokenOut",
          "type": "address"
        },
        {
          "internalType": "uint256",
          "name": "_amountIn",
          "type": "uint256"
        }
      ],
      "name": "getAmountOutMin",
      "outputs": [
        {
          "internalType": "uint256",
          "name": "",
          "type": "uint256"
        }
      ],
      "stateMutability": "view",
      "type": "function"
    },
    {
      "inputs": [
        {
          "internalType": "address",
          "name": "token0",
          "type": "address"
        },
        {
          "internalType": "address",
          "name": "token1",
          "type": "address"
        }
      ],
      "name": "getPrice",
      "outputs": [
        {
          "internalType": "int256",
          "name": "",
          "type": "int256"
        }
      ],
      "stateMutability": "view",
      "type": "function"
    },
    {
      "inputs": [
        {
          "internalType": "address",
          "name": "_token",
          "type": "address"
        },
        {
          "internalType": "uint256",
          "name": "_amount",
          "type": "uint256"
        }
      ],
      "name": "initiateFlashLoan",
      "outputs": [],
      "stateMutability": "nonpayable",
      "type": "function"
    },
    {
      "inputs": [],
      "name": "repay",
      "outputs": [
        {
          "internalType": "uint256",
          "name": "",
          "type": "uint256"
        }
      ],
      "stateMutability": "view",
      "type": "function"
    },
    {
      "inputs": [],
      "name": "swapRouter",
      "outputs": [
        {
          "internalType": "contract ISwapRouter",
          "name": "",
          "type": "address"
        }
      ],
      "stateMutability": "view",
      "type": "function"
    }
  ],
  "bytecode": "0x60a0604052731f98431c8ad98523631ae4a59f267346ea31f984608052600080546001600160a01b0319908116736b175474e89094c44da98b954eedeac495271d0f1782556001805490911673c02aaa39b223fe8d0a0e5c4f27ead9083c756cc21790556002819055600381905560045534801561007c57600080fd5b5060805161244861009f6000396000818161016a0152610d7b01526124486000f3fe608060405234801561001057600080fd5b506004361061009e5760003560e01c80638b418713116100665780638b41871314610103578063ac41865a14610116578063c31c9c0714610129578063c45c4f581461015c578063c5cc6b6a1461016557600080fd5b80633c50eec1146100a3578063402d8883146100c957806340441eec146100d25780635e2c1b3a146100db5780636f5b825d146100f0575b600080fd5b6100b66100b1366004611a36565b61018c565b6040519081526020015b60405180910390f35b6100b660035481565b6100b660045481565b6100ee6100e9366004611a77565b6103f1565b005b6100b66100fe366004611aa3565b61067c565b6100ee610111366004611b84565b61082a565b6100b6610124366004611c68565b610a01565b61014473e592427a0aece92de3edee1f18e0157c0586156481565b6040516001600160a01b0390911681526020016100c0565b6100b660025481565b6101447f000000000000000000000000000000000000000000000000000000000000000081565b600060606001600160a01b03851673c02aaa39b223fe8d0a0e5c4f27ead9083c756cc214806101d757506001600160a01b03841673c02aaa39b223fe8d0a0e5c4f27ead9083c756cc2145b15610269576040805160028082526060820183529091602083019080368337019050509050848160008151811061021057610210611ca1565b60200260200101906001600160a01b031690816001600160a01b031681525050838160018151811061024457610244611ca1565b60200260200101906001600160a01b031690816001600160a01b03168152505061033b565b604080516003808252608082019092529060208201606080368337019050509050848160008151811061029e5761029e611ca1565b60200260200101906001600160a01b031690816001600160a01b03168152505073c02aaa39b223fe8d0a0e5c4f27ead9083c756cc2816001815181106102e6576102e6611ca1565b60200260200101906001600160a01b031690816001600160a01b031681525050838160028151811061031a5761031a611ca1565b60200260200101906001600160a01b031690816001600160a01b0316815250505b60405163d06ca61f60e01b815260009073d9e1ce17f2641f24ae83637ab66a2cca9c378b9f9063d06ca61f906103779087908690600401611cfb565b600060405180830381865afa158015610394573d6000803e3d6000fd5b505050506040513d6000823e601f3d908101601f191682016040526103bc9190810190611d38565b905080600183516103cd9190611de4565b815181106103dd576103dd611ca1565b6020026020010151925050505b9392505050565b731e0447b19bb6ecfdae1e4ae1694b0c3659614e4e60006104128285610a96565b9050600061041f84610c04565b60405163095ea7b360e01b8152731e0447b19bb6ecfdae1e4ae1694b0c3659614e4e6004820152602481018290529091506001600160a01b0386169063095ea7b3906044016020604051808303816000875af1158015610483573d6000803e3d6000fd5b505050506040513d601f19601f820116820180604052508101906104a79190611dfb565b5060408051600380825260808201909252600091816020015b6104c86119a8565b8152602001906001900390816104c05790505090506104e78386610c11565b816000815181106104fa576104fa611ca1565b602002602001018190525061054a6040518060400160405280886001600160a01b03168152602001848152506040516020016105369190611e1d565b604051602081830303815290604052610c9b565b8160018151811061055d5761055d611ca1565b60200260200101819052506105728383610d09565b8160028151811061058557610585611ca1565b6020908102919091010152604080516001808252818301909252600091816020015b60408051808201909152600080825260208201528152602001906001900390816105a7575050604080518082018252600080825260209182015281518083019092523082526001908201529091508160008151811061060857610608611ca1565b602090810291909101015260405163a67a6a4560e01b81526001600160a01b0386169063a67a6a45906106419084908690600401611ef6565b600060405180830381600087803b15801561065b57600080fd5b505af115801561066f573d6000803e3d6000fd5b5050505050505050505050565b60008061068c8684610bb8610d44565b604080516002808252606082018352929350600092909160208301908036833701905050905084816000815181106106c6576106c6611ca1565b602002602001019063ffffffff16908163ffffffff16815250506000816001815181106106f5576106f5611ca1565b63ffffffff9092166020928302919091019091015260405163883bdbfd60e01b81526000906001600160a01b0384169063883bdbfd9061073990859060040161202f565b600060405180830381865afa158015610756573d6000803e3d6000fd5b505050506040513d6000823e601f3d908101601f1916820160405261077e91908101906120e8565b50905060008160008151811061079657610796611ca1565b6020026020010151826001815181106107b1576107b1611ca1565b60200260200101516107c391906121b4565b905060006107d763ffffffff89168361221a565b905060008260060b1280156107fd57506107f763ffffffff891683612258565b60060b15155b15610810578061080c8161227a565b9150505b61081c818a8c8a610e3b565b9a9950505050505050505050565b33731e0447b19bb6ecfdae1e4ae1694b0c3659614e4e1461087a5760405162461bcd60e51b815260206004820152600560248201526421736f6c6f60d81b60448201526064015b60405180910390fd5b6001600160a01b03831630146108c35760405162461bcd60e51b815260206004820152600e60248201526d085d1a1a5cc818dbdb9d1c9858dd60921b6044820152606401610871565b6000818060200190518101906108d9919061229d565b602081015181516040516370a0823160e01b815230600482015292935090916000916001600160a01b0316906370a0823190602401602060405180830381865afa15801561092b573d6000803e3d6000fd5b505050506040513d601f19601f8201168201806040525081019061094f91906122f5565b90508181101561098f5760405162461bcd60e51b815260206004820152600b60248201526a62616c203c20726570617960a81b6044820152606401610871565b600281905560038290556109a3828261230e565b60045560006109b383600261234d565b60015460008054929350916109d5916001600160a01b03908116911684610f49565b6000546001549192506109f7916001600160a01b039182169116838530611083565b5050505050505050565b600080610a118484610bb8610d44565b90506001600160a01b038116610a735760405162461bcd60e51b815260206004820152602160248201527f506f6f6c20646f6573206e6f74206578697374206f6e20556e697377617020566044820152603360f81b6064820152608401610871565b6000610a8b85670de0b6b3a76400006101f48761067c565b925050505b92915050565b6000808390506000816001600160a01b031663295c39a56040518163ffffffff1660e01b8152600401602060405180830381865afa158015610adc573d6000803e3d6000fd5b505050506040513d601f19601f82011682018060405250810190610b0091906122f5565b90506000805b82811015610baf5760405163062bd3e960e01b8152600481018290526001600160a01b0385169063062bd3e990602401602060405180830381865afa158015610b53573d6000803e3d6000fd5b505050506040513d601f19601f82011682018060405250810190610b779190612365565b9150856001600160a01b0316826001600160a01b031603610b9d579350610a9092505050565b80610ba781612382565b915050610b06565b5060405162461bcd60e51b8152602060048201526024808201527f4e6f206d61726b6574496420666f756e6420666f722070726f7669646564207460448201526337b5b2b760e11b6064820152608401610871565b6000610a908260026113bd565b610c196119a8565b604080516101008101825260018152600060208083018290528351608081018552828152929384019291908201905b81526020016000815260200185815250815260200184815260200160008152602001306001600160a01b031681526020016000815260200160405180602001604052806000815250815250905092915050565b610ca36119a8565b6040805161010081018252600881526000602080830182905283516080810185528281529293840192919082019081526020016000815260006020918201819052918352820181905260408201819052306060830152608082015260a001929092525090565b610d116119a8565b60408051610100810182526000808252602080830182905283516080810185526001815292938401929190820190610c48565b604051630b4c774160e11b81526001600160a01b038481166004830152838116602483015262ffffff8316604483015260009182917f00000000000000000000000000000000000000000000000000000000000000001690631698ee8290606401602060405180830381865afa158015610dc2573d6000803e3d6000fd5b505050506040513d601f19601f82011682018060405250810190610de69190612365565b90506001600160a01b038116610e335760405162461bcd60e51b81526020600482015260126024820152711c1bdbdb08191bd95cdb89dd08195e1a5cdd60721b6044820152606401610871565b949350505050565b600080610e47866113c9565b90506001600160801b036001600160a01b03821611610ecd576000610e756001600160a01b0383168061239b565b9050836001600160a01b0316856001600160a01b031610610ead57610ea8600160c01b876001600160801b0316836116ec565b610ec5565b610ec581876001600160801b0316600160c01b6116ec565b925050610f40565b6000610eec6001600160a01b03831680680100000000000000006116ec565b9050836001600160a01b0316856001600160a01b031610610f2457610f1f600160801b876001600160801b0316836116ec565b610f3c565b610f3c81876001600160801b0316600160801b6116ec565b9250505b50949350505050565b6000610f578430308561179e565b610f768473e592427a0aece92de3edee1f18e0157c05861564846118a8565b60408051610100810182526001600160a01b03868116825285811660208301908152610bb88385019081523060608501908152426080860190815260a08601898152600060c0880181815260e08901918252985163414bf38960e01b8152885188166004820152955187166024870152935162ffffff1660448601529151851660648501525160848401525160a4830152935160c482015292511660e48301529073e592427a0aece92de3edee1f18e0157c058615649063414bf38990610104016020604051808303816000875af1158015611056573d6000803e3d6000fd5b505050506040513d601f19601f8201168201806040525081019061107a91906122f5565b95945050505050565b6040516323b872dd60e01b8152336004820152306024820152604481018490526001600160a01b038616906323b872dd906064016020604051808303816000875af11580156110d6573d6000803e3d6000fd5b505050506040513d601f19601f820116820180604052508101906110fa9190611dfb565b5060405163095ea7b360e01b815273d9e1ce17f2641f24ae83637ab66a2cca9c378b9f6004820152602481018490526001600160a01b0386169063095ea7b3906044016020604051808303816000875af115801561115c573d6000803e3d6000fd5b505050506040513d601f19601f820116820180604052508101906111809190611dfb565b5060606001600160a01b03861673c02aaa39b223fe8d0a0e5c4f27ead9083c756cc214806111ca57506001600160a01b03851673c02aaa39b223fe8d0a0e5c4f27ead9083c756cc2145b1561125c576040805160028082526060820183529091602083019080368337019050509050858160008151811061120357611203611ca1565b60200260200101906001600160a01b031690816001600160a01b031681525050848160018151811061123757611237611ca1565b60200260200101906001600160a01b031690816001600160a01b03168152505061132e565b604080516003808252608082019092529060208201606080368337019050509050858160008151811061129157611291611ca1565b60200260200101906001600160a01b031690816001600160a01b03168152505073c02aaa39b223fe8d0a0e5c4f27ead9083c756cc2816001815181106112d9576112d9611ca1565b60200260200101906001600160a01b031690816001600160a01b031681525050848160028151811061130d5761130d611ca1565b60200260200101906001600160a01b031690816001600160a01b0316815250505b6040516338ed173960e01b815273d9e1ce17f2641f24ae83637ab66a2cca9c378b9f906338ed17399061136d90879087908690889042906004016123ba565b6000604051808303816000875af115801561138c573d6000803e3d6000fd5b505050506040513d6000823e601f3d908101601f191682016040526113b49190810190611d38565b50505050505050565b60006103ea828461234d565b60008060008360020b126113e0578260020b6113e8565b8260020b6000035b9050620d89e881111561140e576040516315e4079d60e11b815260040160405180910390fd5b60008160011660000361142557600160801b611437565b6ffffcb933bd6fad37aa2d162d1a5940015b70ffffffffffffffffffffffffffffffffff169050600282161561146b576ffff97272373d413259a46990580e213a0260801c5b600482161561148a576ffff2e50f5f656932ef12357cf3c7fdcc0260801c5b60088216156114a9576fffe5caca7e10e4e61c3624eaa0941cd00260801c5b60108216156114c8576fffcb9843d60f6159c9db58835c9266440260801c5b60208216156114e7576fff973b41fa98c081472e6896dfb254c00260801c5b6040821615611506576fff2ea16466c96a3843ec78b326b528610260801c5b6080821615611525576ffe5dee046a99a2a811c461f1969c30530260801c5b610100821615611545576ffcbe86c7900a88aedcffc83b479aa3a40260801c5b610200821615611565576ff987a7253ac413176f2b074cf7815e540260801c5b610400821615611585576ff3392b0822b70005940c7a398e4b70f30260801c5b6108008216156115a5576fe7159475a2c29b7443b29c7fa6e889d90260801c5b6110008216156115c5576fd097f3bdfd2022b8845ad8f792aa58250260801c5b6120008216156115e5576fa9f746462d870fdf8a65dc1f90e061e50260801c5b614000821615611605576f70d869a156d2a1b890bb3df62baf32f70260801c5b618000821615611625576f31be135f97d08fd981231505542fcfa60260801c5b62010000821615611646576f09aa508b5b7a84e1c677de54f3e99bc90260801c5b62020000821615611666576e5d6af8dedb81196699c329225ee6040260801c5b62040000821615611685576d2216e584f5fa1ea926041bedfe980260801c5b620800008216156116a2576b048a170391f7dc42444e8fa20260801c5b60008460020b13156116c35780600019816116bf576116bf612204565b0490505b6401000000008106156116d75760016116da565b60005b60ff16602082901c0192505050919050565b6000808060001985870985870292508281108382030391505080600003611725576000841161171a57600080fd5b5082900490506103ea565b80841161173157600080fd5b6000848688096000868103871696879004966002600389028118808a02820302808a02820302808a02820302808a02820302808a02820302808a02909103029181900381900460010186841190950394909402919094039290920491909117919091029150509392505050565b604080516001600160a01b0385811660248301528481166044830152606480830185905283518084039091018152608490920183526020820180516001600160e01b03166323b872dd60e01b179052915160009283929088169161180291906123f6565b6000604051808303816000865af19150503d806000811461183f576040519150601f19603f3d011682016040523d82523d6000602084013e611844565b606091505b509150915081801561186e57508051158061186e57508080602001905181019061186e9190611dfb565b6118a05760405162461bcd60e51b815260206004820152600360248201526229aa2360e91b6044820152606401610871565b505050505050565b604080516001600160a01b038481166024830152604480830185905283518084039091018152606490920183526020820180516001600160e01b031663095ea7b360e01b179052915160009283929087169161190491906123f6565b6000604051808303816000865af19150503d8060008114611941576040519150601f19603f3d011682016040523d82523d6000602084013e611946565b606091505b50915091508180156119705750805115806119705750808060200190518101906119709190611dfb565b6119a15760405162461bcd60e51b8152602060048201526002602482015261534160f01b6044820152606401610871565b5050505050565b6040805161010081018252600080825260208201529081016119ec604080516080810190915260008082526020820190815260200160008152602001600081525090565b8152602001600081526020016000815260200160006001600160a01b0316815260200160008152602001606081525090565b6001600160a01b0381168114611a3357600080fd5b50565b600080600060608486031215611a4b57600080fd5b8335611a5681611a1e565b92506020840135611a6681611a1e565b929592945050506040919091013590565b60008060408385031215611a8a57600080fd5b8235611a9581611a1e565b946020939093013593505050565b60008060008060808587031215611ab957600080fd5b8435611ac481611a1e565b935060208501356001600160801b0381168114611ae057600080fd5b9250604085013563ffffffff81168114611af957600080fd5b91506060850135611b0981611a1e565b939692955090935050565b634e487b7160e01b600052604160045260246000fd5b6040805190810167ffffffffffffffff81118282101715611b4d57611b4d611b14565b60405290565b604051601f8201601f1916810167ffffffffffffffff81118282101715611b7c57611b7c611b14565b604052919050565b60008060008385036080811215611b9a57600080fd5b8435611ba581611a1e565b93506020601f1960408382011215611bbc57600080fd5b611bc4611b2a565b925081870135611bd381611a1e565b835260408701358284015291935060608601359167ffffffffffffffff80841115611bfd57600080fd5b838801935088601f850112611c1157600080fd5b833581811115611c2357611c23611b14565b611c338484601f84011601611b53565b92508083528984828701011115611c4957600080fd5b8084860185850137600084828501015250508093505050509250925092565b60008060408385031215611c7b57600080fd5b8235611c8681611a1e565b91506020830135611c9681611a1e565b809150509250929050565b634e487b7160e01b600052603260045260246000fd5b600081518084526020808501945080840160005b83811015611cf05781516001600160a01b031687529582019590820190600101611ccb565b509495945050505050565b828152604060208201526000610e336040830184611cb7565b600067ffffffffffffffff821115611d2e57611d2e611b14565b5060051b60200190565b60006020808385031215611d4b57600080fd5b825167ffffffffffffffff811115611d6257600080fd5b8301601f81018513611d7357600080fd5b8051611d86611d8182611d14565b611b53565b81815260059190911b82018301908381019087831115611da557600080fd5b928401925b82841015611dc357835182529284019290840190611daa565b979650505050505050565b634e487b7160e01b600052601160045260246000fd5b600082821015611df657611df6611dce565b500390565b600060208284031215611e0d57600080fd5b815180151581146103ea57600080fd5b81516001600160a01b031681526020808301519082015260408101610a90565b634e487b7160e01b600052602160045260246000fd5b60028110611a3357611a33611e3d565b8051151582526020810151611e7781611e53565b60208301526040810151611e8a81611e53565b6040830152606090810151910152565b60005b83811015611eb5578181015183820152602001611e9d565b83811115611ec4576000848401525b50505050565b60008151808452611ee2816020860160208601611e9a565b601f01601f19169290920160200192915050565b6040808252835182820181905260009190606090818501906020808901865b83811015611f4b57611f3b85835180516001600160a01b03168252602090810151910152565b9386019390820190600101611f15565b50508683038188015287518084528184019250600581901b8401820189830160005b8381101561201e57601f198784030186528151610160815160098110611f9557611f95611e3d565b855281870151878601528a820151611faf8c870182611e63565b508982015160c081818801526080840151915060e0828189015260a08501519250611fe66101008901846001600160a01b03169052565b90840151610120880152909201516101408601829052915061200a81860183611eca565b978701979450505090840190600101611f6d565b50909b9a5050505050505050505050565b6020808252825182820181905260009190848201906040850190845b8181101561206d57835163ffffffff168352928401929184019160010161204b565b50909695505050505050565b600082601f83011261208a57600080fd5b8151602061209a611d8183611d14565b82815260059290921b840181019181810190868411156120b957600080fd5b8286015b848110156120dd5780516120d081611a1e565b83529183019183016120bd565b509695505050505050565b600080604083850312156120fb57600080fd5b825167ffffffffffffffff8082111561211357600080fd5b818501915085601f83011261212757600080fd5b81516020612137611d8183611d14565b82815260059290921b8401810191818101908984111561215657600080fd5b948201945b838610156121845785518060060b81146121755760008081fd5b8252948201949082019061215b565b9188015191965090935050508082111561219d57600080fd5b506121aa85828601612079565b9150509250929050565b60008160060b8360060b6000811281667fffffffffffff19018312811516156121df576121df611dce565b81667fffffffffffff0183138116156121fa576121fa611dce565b5090039392505050565b634e487b7160e01b600052601260045260246000fd5b60008160060b8360060b8061223157612231612204565b667fffffffffffff1982146000198214161561224f5761224f611dce565b90059392505050565b60008260060b8061226b5761226b612204565b808360060b0791505092915050565b60008160020b627fffff19810361229357612293611dce565b6000190192915050565b6000604082840312156122af57600080fd5b6040516040810181811067ffffffffffffffff821117156122d2576122d2611b14565b60405282516122e081611a1e565b81526020928301519281019290925250919050565b60006020828403121561230757600080fd5b5051919050565b60008083128015600160ff1b85018412161561232c5761232c611dce565b6001600160ff1b038401831381161561234757612347611dce565b50500390565b6000821982111561236057612360611dce565b500190565b60006020828403121561237757600080fd5b81516103ea81611a1e565b60006001820161239457612394611dce565b5060010190565b60008160001904831182151516156123b5576123b5611dce565b500290565b85815284602082015260a0604082015260006123d960a0830186611cb7565b6001600160a01b0394909416606083015250608001529392505050565b60008251612408818460208701611e9a565b919091019291505056fea264697066735822122032ffdfefe8429dc6d90734ded7e60a5ec5ff45a088701397a2417dc556f684bd64736f6c634300080f0033",
  "linkReferences": {},
  "deployedLinkReferences": {}
}